{
  "contractName": "Faucet",
  "abi": [
    {
      "inputs": [
        {
          "internalType": "address",
          "name": "",
          "type": "address"
        }
      ],
      "name": "funders",
      "outputs": [
        {
          "internalType": "bool",
          "name": "",
          "type": "bool"
        }
      ],
      "stateMutability": "view",
      "type": "function",
      "constant": true
    },
    {
      "inputs": [
        {
          "internalType": "uint256",
          "name": "",
          "type": "uint256"
        }
      ],
      "name": "lutFunders",
      "outputs": [
        {
          "internalType": "address",
          "name": "",
          "type": "address"
        }
      ],
      "stateMutability": "view",
      "type": "function",
      "constant": true
    },
    {
      "inputs": [],
      "name": "numOfFunders",
      "outputs": [
        {
          "internalType": "uint256",
          "name": "",
          "type": "uint256"
        }
      ],
      "stateMutability": "view",
      "type": "function",
      "constant": true
    },
    {
      "inputs": [],
      "name": "owner",
      "outputs": [
        {
          "internalType": "address",
          "name": "",
          "type": "address"
        }
      ],
      "stateMutability": "view",
      "type": "function",
      "constant": true
    },
    {
      "inputs": [
        {
          "internalType": "address",
          "name": "newOwner",
          "type": "address"
        }
      ],
      "name": "transferOwnership",
      "outputs": [],
      "stateMutability": "nonpayable",
      "type": "function"
    },
    {
      "stateMutability": "payable",
      "type": "receive",
      "payable": true
    },
    {
      "inputs": [],
      "name": "emitLog",
      "outputs": [
        {
          "internalType": "bytes32",
          "name": "",
          "type": "bytes32"
        }
      ],
      "stateMutability": "pure",
      "type": "function",
      "constant": true
    },
    {
      "inputs": [],
      "name": "addFunds",
      "outputs": [],
      "stateMutability": "payable",
      "type": "function",
      "payable": true
    },
    {
      "inputs": [
        {
          "internalType": "uint256",
          "name": "amount",
          "type": "uint256"
        }
      ],
      "name": "withdraw",
      "outputs": [],
      "stateMutability": "nonpayable",
      "type": "function"
    },
    {
      "inputs": [],
      "name": "getAllFunders",
      "outputs": [
        {
          "internalType": "address[]",
          "name": "",
          "type": "address[]"
        }
      ],
      "stateMutability": "view",
      "type": "function",
      "constant": true
    },
    {
      "inputs": [
        {
          "internalType": "uint8",
          "name": "id",
          "type": "uint8"
        }
      ],
      "name": "getFunderById",
      "outputs": [
        {
          "internalType": "address",
          "name": "",
          "type": "address"
        }
      ],
      "stateMutability": "view",
      "type": "function",
      "constant": true
    }
  ],
  "bytecode": "0x608060405234801561001057600080fd5b50336000806101000a81548173ffffffffffffffffffffffffffffffffffffffff021916908373ffffffffffffffffffffffffffffffffffffffff160217905550610bb6806100606000396000f3fe6080604052600436106100955760003560e01c80638da5cb5b116100595780638da5cb5b146101ac578063a26759cb146101d7578063af7f2c9b146101e1578063f2fde38b1461020c578063f42c13bf146102355761009c565b8063031b3677146100a15780631f8947ea146100de5780632e1a7d4d1461011b5780636fbbb55d146101445780637285a4231461016f5761009c565b3661009c57005b600080fd5b3480156100ad57600080fd5b506100c860048036038101906100c39190610752565b610260565b6040516100d59190610911565b60405180910390f35b3480156100ea57600080fd5b506101056004803603810190610100919061077b565b610280565b60405161011291906108d4565b60405180910390f35b34801561012757600080fd5b50610142600480360381019061013d919061077b565b6102b3565b005b34801561015057600080fd5b5061015961034a565b60405161016691906108ef565b60405180910390f35b34801561017b57600080fd5b50610196600480360381019061019191906107a4565b610490565b6040516101a391906108d4565b60405180910390f35b3480156101b857600080fd5b506101c16104d0565b6040516101ce91906108d4565b60405180910390f35b6101df6104f4565b005b3480156101ed57600080fd5b506101f6610614565b6040516102039190610987565b60405180910390f35b34801561021857600080fd5b50610233600480360381019061022e9190610752565b61061a565b005b34801561024157600080fd5b5061024a6106eb565b604051610257919061092c565b60405180910390f35b60026020528060005260406000206000915054906101000a900460ff1681565b60036020528060005260406000206000915054906101000a900473ffffffffffffffffffffffffffffffffffffffff1681565b80670de0b6b3a76400008111156102ff576040517f08c379a00000000000000000000000000000000000000000000000000000000081526004016102f690610967565b60405180910390fd5b3373ffffffffffffffffffffffffffffffffffffffff166108fc839081150290604051600060405180830381858888f19350505050158015610345573d6000803e3d6000fd5b505050565b6060600060015467ffffffffffffffff811115610390577f4e487b7100000000000000000000000000000000000000000000000000000000600052604160045260246000fd5b6040519080825280602002602001820160405280156103be5781602001602082028036833780820191505090505b50905060005b600154811015610488576003600082815260200190815260200160002060009054906101000a900473ffffffffffffffffffffffffffffffffffffffff1682828151811061043b577f4e487b7100000000000000000000000000000000000000000000000000000000600052603260045260246000fd5b602002602001019073ffffffffffffffffffffffffffffffffffffffff16908173ffffffffffffffffffffffffffffffffffffffff1681525050808061048090610a4b565b9150506103c4565b508091505090565b6000600360008360ff16815260200190815260200160002060009054906101000a900473ffffffffffffffffffffffffffffffffffffffff169050919050565b60008054906101000a900473ffffffffffffffffffffffffffffffffffffffff1681565b6000339050600260008273ffffffffffffffffffffffffffffffffffffffff1673ffffffffffffffffffffffffffffffffffffffff16815260200190815260200160002060009054906101000a900460ff166106115760006001600081548092919061055f90610a4b565b9190505590506001600260008473ffffffffffffffffffffffffffffffffffffffff1673ffffffffffffffffffffffffffffffffffffffff16815260200190815260200160002060006101000a81548160ff021916908315150217905550816003600083815260200190815260200160002060006101000a81548173ffffffffffffffffffffffffffffffffffffffff021916908373ffffffffffffffffffffffffffffffffffffffff160217905550505b50565b60015481565b60008054906101000a900473ffffffffffffffffffffffffffffffffffffffff1673ffffffffffffffffffffffffffffffffffffffff163373ffffffffffffffffffffffffffffffffffffffff16146106a8576040517f08c379a000000000000000000000000000000000000000000000000000000000815260040161069f90610947565b60405180910390fd5b806000806101000a81548173ffffffffffffffffffffffffffffffffffffffff021916908373ffffffffffffffffffffffffffffffffffffffff16021790555050565b60007f68656c6c6f000000000000000000000000000000000000000000000000000000905090565b60008135905061072281610b3b565b92915050565b60008135905061073781610b52565b92915050565b60008135905061074c81610b69565b92915050565b60006020828403121561076457600080fd5b600061077284828501610713565b91505092915050565b60006020828403121561078d57600080fd5b600061079b84828501610728565b91505092915050565b6000602082840312156107b657600080fd5b60006107c48482850161073d565b91505092915050565b60006107d983836107e5565b60208301905092915050565b6107ee816109ec565b82525050565b6107fd816109ec565b82525050565b600061080e826109b2565b61081881856109ca565b9350610823836109a2565b8060005b8381101561085457815161083b88826107cd565b9750610846836109bd565b925050600181019050610827565b5085935050505092915050565b61086a816109fe565b82525050565b61087981610a0a565b82525050565b600061088c6021836109db565b915061089782610ac3565b604082019050919050565b60006108af601f836109db565b91506108ba82610b12565b602082019050919050565b6108ce81610a34565b82525050565b60006020820190506108e960008301846107f4565b92915050565b600060208201905081810360008301526109098184610803565b905092915050565b60006020820190506109266000830184610861565b92915050565b60006020820190506109416000830184610870565b92915050565b600060208201905081810360008301526109608161087f565b9050919050565b60006020820190508181036000830152610980816108a2565b9050919050565b600060208201905061099c60008301846108c5565b92915050565b6000819050602082019050919050565b600081519050919050565b6000602082019050919050565b600082825260208201905092915050565b600082825260208201905092915050565b60006109f782610a14565b9050919050565b60008115159050919050565b6000819050919050565b600073ffffffffffffffffffffffffffffffffffffffff82169050919050565b6000819050919050565b600060ff82169050919050565b6000610a5682610a34565b91507fffffffffffffffffffffffffffffffffffffffffffffffffffffffffffffffff821415610a8957610a88610a94565b5b600182019050919050565b7f4e487b7100000000000000000000000000000000000000000000000000000000600052601160045260246000fd5b7f4f6e6c79206f776e65722063616e2063616c6c20746869732066756e6374696f60008201527f6e00000000000000000000000000000000000000000000000000000000000000602082015250565b7f43616e6e6f74207769746864726177206d6f7265207468616e20312065746800600082015250565b610b44816109ec565b8114610b4f57600080fd5b50565b610b5b81610a34565b8114610b6657600080fd5b50565b610b7281610a3e565b8114610b7d57600080fd5b5056fea2646970667358221220630e13abd20b5db39085e35fed3223d70cd157609d88ede458e274b8350b006864736f6c63430008040033",
  "immutableReferences": {},
  "source": "// SPDX-License-Identifier: MIT\r\npragma solidity >=0.4.22 <0.9.0;\r\nimport \"./Owned.sol\";\r\nimport \"./Logger.sol\";\r\nimport \"./IFaucet.sol\";\r\n\r\ncontract Faucet is Owned, Logger, IFaucet {\r\n    uint256 public numOfFunders;\r\n    mapping(address => bool) public funders;\r\n    mapping(uint256 => address) public lutFunders;\r\n\r\n    receive() external payable {}\r\n\r\n    function emitLog() public pure override returns (bytes32) {\r\n        return \"hello\";\r\n    }\r\n\r\n    modifier limitWithdraw(uint256 amount) {\r\n        require(\r\n            amount <= 1000000000000000000,\r\n            \"Cannot withdraw more than 1 eth\"\r\n        );\r\n        _;\r\n    }\r\n\r\n    function addFunds() external payable override {\r\n        address funder = msg.sender;\r\n\r\n        if (!funders[funder]) {\r\n            uint256 index = numOfFunders++;\r\n            funders[funder] = true;\r\n            lutFunders[index] = funder;\r\n        }\r\n    }\r\n\r\n    function withdraw(uint256 amount) external override limitWithdraw(amount) {\r\n        payable(msg.sender).transfer(amount);\r\n    }\r\n\r\n    function getAllFunders() external view returns (address[] memory) {\r\n        address[] memory _funders = new address[](numOfFunders);\r\n\r\n        for (uint256 i = 0; i < numOfFunders; i++) {\r\n            _funders[i] = lutFunders[i];\r\n        }\r\n        return _funders;\r\n    }\r\n\r\n    function getFunderById(uint8 id) external view returns (address) {\r\n        return lutFunders[id];\r\n    }\r\n}\r\n",
  "sourcePath": "C:\\Users\\mbach\\WebDev\\Udemy\\Solidity-React-Course\\faucet\\contracts\\Faucet.sol",
  "compiler": {
    "name": "solc",
    "version": "0.8.4+commit.c7e474f2.Emscripten.clang"
  },
  "schemaVersion": "3.4.3",
  "updatedAt": "2022-03-09T19:49:03.402Z",
  "networkType": "ethereum",
  "devdoc": {
    "kind": "dev",
    "methods": {},
    "version": 1
  },
  "userdoc": {
    "kind": "user",
    "methods": {},
    "version": 1
  }
}